S02B0000416C6C5F5365635F5A69674269745F41746D656761313238315F52663231325F384D687A5F47636341
S2840000000C946B050C94A3050C94A3050C94A3050C94A3050C94731D0C9416D10C94D51D0C94041E0C94A3050C94A3050C94A3050C94A3050C94931A0C94A3050C94DC1A0C94A3050C94A3050C94A3050C94A3050C94A3050C94A3050C94A3050C94A3050C94A3050C94B31C0C94571C0C94851C0C94A3050C94F1210C94AE1E0C94A305FC
S2840000800C94A3050C94A3050C94A3050C94A3050C94411D0C94E51C0C94131D0C94331E0C94A3050C94A3050C94D81B0C94B9D00C94A3050C94A3050C94A3050C94A3050C94A3050C94A3050C94A3055F0D080000007A0D01000100A80D080002000F0D040003002A0E01000400210E010005008B0D010006008C0D010007008D0D01000B
S2840001000800970D110009007C0D02000A00820D01000B002C0E02000C00240E01000D00420E01000E00B20D01000F00040D080010000C0D02001100B40D01001200B50D02001300BE0D01001400300E08001500810D010016003205BD0017003A0A030018007C0C160019003A0E08001A003D0A14001B00AB0513001E00D10504001F0013
S284000180D90502002000DD051C002100150617002200430616002300C537CD3759371A381A38A037AD371A381A381A38D737E637793785371A385637B837103D103D9D3CA43CA43CB03CB03CC13CC13CE73CE73CE73C603D103DCD4DDA4D074E194E204E2D4E3A4E454E4D4E6B4E954E574EB47A5D7B217C3B7C547C777DA47D7B817B814F
S2840002007B817B817B817B817B817B817B81FD7C0B7D7B81467A2F7D0E7CD281DF81FE81FE81F881FE810182098409840984098409840984098409840984FE81FE810984CF81FB81EF8106A717A64BA74BA74BA71DA627A64BA74BA730A636A65FA668A64BA76EA677A682A64BA78BA691A64BA79AA6D7A6ECA64BA7DDA6E6A606A706A700
S28400028006A7F8A6F8A6F8A6F8A6F8A6F8A6F8A6F8A6F8A6F8A6F8A6F8A6F8A6F8A6F8A6F8A6F8A6AEA6F8A64BA74BA74BA74BA74BA74BA74BA74BA74BA74BA74BA74BA74BA74BA7F8A6F2A606A7F8A6A9A6BDA81DA80DA90DA90DA923A828A8D4A80DA92BA82EA847A84CA80DA94FA852A855A80DA95AA85DA8D4A862A8B1A8C6A80DA9C7
S284000300B4A8B7A821A8BAA8BAA8D4A8D4A8D4A8D4A8D4A8D4A8D4A8D4A8D4A8D4A8D4A8D4A8D4A8D4A8D4A8D4A8D4A897A8D4A80DA90DA90DA90DA90DA90DA90DA90DA90DA90DA90DA90DA90DA90DA9D4A8C9A8CCA8D4A890A81BAA1EAA21AA24AA27AA2AAA2DAA30AA30AA7FAA84AA87AA93AA8BAA8EAA93AA98AA98AA00AD3CAD3CAD68
S2840003803CAD06AD1FAD12AD18AD4CAD0CAD25AD25AD2BAD3CAD43AD47AD97AD9AAD9DAD9DADA0ADACADA6ADA9ADBCADA3ADAFADB2ADB5ADB8AD7CAF7FAF9FAF82AF85AF9FAF88AF9FAF93AF96AF9DAFDAB399B4ABB494B3F1B4F1B4A6B4ABB4AEB4DCB4C5B4F1B4F1B4DCB4C8B3DFB444C4B0C46DC4A0C43BC5B0C40CC544C5C0C40CC52C
S2840004003FC559C5D0C7D8C7EAC7F3C7F5C7F7C7F9C7FCC7C7C840C940C9EFC8F5C804C90AC90DC910C913C919C9646464646464646464646464646463636363636363636363636363626262626262626161616161606060605F5F5F5E5E5D5D5D5C5C5B5B5A5959585757565554535251504F4E4D4B4A4947454442403E3C3A38363431AD
S2840004802F2C2A2928282727262625252524242423232323222222222121212120202020201F1F1F1F1F1E1E1E1E1E00000100020003000400050006000700080009000A000B000C000D000E000F00100012001400160018001A001C001E00200022002400260028002A002C002E003100350039003D004100450049004D005100550059BC
S284000500005D006100650069006D0073007B0083008B0093009B00A300AB00B300BB00C300CB00D300DB00E300EB00F7000701170127013701470157016701770187019701A701B701C701D701E701FF011F023F025F027F029F02BF02DF02FF021F033F035F037F039F03BF03DF030F044F048F04CF040F054F058F05CF050F064F068FE3
S28400058006CF060F074F078F07CF072F08AF082F09AF092F0AAF0A2F0BAF0B2F0CAF0C2F0DAF0D2F0EAF0E2F0FAF0F00000100020003000400050006000700080009000A000B000C000D000E000F0010001100120013001400150016001A001B0000000100020003000400050006000700080009000A000B000C000D000E000F00100011D0
S28400060000120013001400150016001700180019001A001B0000000100020003000400050006000700080009000A000B000C000D000E000F00100011001200130014001500160000000100020003000400050006000700080009000A000B000C000D000E000F0010001100120018001A001B0000000000000000000000000000000000009F
S284000680000000000000000000000000000000000000000000000000000000000000000000000000000000000000000000000000000000000000000000000000000000000000000000000000000000000000000000000000000000000000000102010002020508080000FFFF341200000000000000000202000501013D0A510A01020000E4
S2840007000000000000000000000000000000000000000000000000000000000000000000000000000000000500FF000002AAAAAAAAAAAAAAAAFFFF00001E00000300341201030300001027000010270000010001E803000004E80300001041746D656C20202020202020202020200000000000000000030100010085000000070507040262
S28400078005020402040308010803020A01004D0035000E01141001102700005F0D0800690D0100760D04007A0D0100280E0100290E0100300E08002C0E0200B50D0200BE0D0100240E0100420E01002A0E01007E0D01007F0D0100800D0100810D01007C0D0200820D0100260E0100250E0100390D01003B0D0100A80D08000F0D04008EE5
S2840008000D0400830D0400870D04008B0D01008C0D01008D0D0100970D1100210E0100920D0100930D0400B00D01003C0D0200B20D01007B0D0100B10D010057021000B30D01003B0E01003C0E0100B40D0100040D08000C0D020000000000770702007B070100790702007D0701007E0701007F0701008007010081070100820701008344
S284000880070100840701007C070100850701008607010094070200890701008A0701008B0701009007040087070100880701008C0701008D0701008E0702009707040096070100130400003205000098040000EF0500000000000019060000F20B00004A0C000089090000DB090000A5090000120A0000530A0000880B0000000000000033
S2840009000000003A0A00007C0C00003A0E00003D0A0000510A0000920C000000000000DB0C0000A112A51310129D12A11314121B3B503B7C49555C4B2FE65B913A5B34422B1E383647492EC052EC2A40465D2A000000000000000000002E2A020203020202010101010101010202010101020202020202020202020202020303020203022D
S2840009803D321A2E01078F50A93D01018F50A93D0101F331203501017B31DE5301017B31B75301073331FA3A0101DA30755301010000000001070000000001010000000001030000BE2601040000BE26010500000000010600000000010C0000000001018F500000000100000000010D000000000107000000000109000000000100000027
S284000A00000001010000000001010000000000000000CE2B00070000CE2B000B0000CE2B00000000CE2B002C230128DB23B523D423000033234123CD233A23F7270D2375267C26EE266726E2230000C1289856D255CC49FC5300007E4B5435BD2F000000001E6728680004081033C69BC69B99C59D00000290000000000000588B000000C4
S284000A8000000000000000B194D4928A9200005992000000000000000052950A090807060504032546ACABAACAEAE9E8E6E5E40D0C0B0A09082A292848ADACABEBEAE9E80D0C0B0A09080706050425242322428584838281A1E1112480919D16823141F084B78F7180939D1680FF05C081E001C081E180939D1614BE8091600088618093F7
S284000B0060001092600011241FBECFEFD1E2DEBFCDBF12E0A0E0B2E0EEE8FBEA01E00BBF02C007900D92A63FB107D9F716E1A6EFB2E001C01D92AD39B107E1F70E94A66B0E94686BFDCF0C9400007F937FB7F8949D9AA5988AEF0E9404068AEF0E9404069D9886E40E94040681E0959980E08F9380EF0E9404068F917FBF7F9108957F93D5
S284000B807FB7F8949D9AA59886E00E9404069D988AE00E940406889495990894881F8F9384E60E9404068F917FBF7F9108959F937F9398E00E94BF05879577959A959923C9F7872F7F919F9108957F937FB7F894A5989D9A8F9386E00E9404068F91879508F49D988F9384E60E9404068F919D987FBF7F9108959F9398E00E94E5059A953F
S284000C009923D9F79F91089500000000000000008A958823C9F708955F937F937FB7F894CF93DF93C0E0D0E07F935091B2007091B2007517E1F3739521965091B2005717D9F77F91CE01DF91CF917FBF7F915F910895EF92FF920F93DF93CF93CDB7DEB760970FB6F894DEBF0FBECDBFA82F002309F461C07E010894E11CF11C88E0F701B7
S284000C8011928A95E9F729833A834B835C836D837E83AF83988780E2801BE82FFF27E7FDF0954D815E816F817885181684F01D861E861F86188A882799278E1B9F0B04C076956795579547958A95D2F728C0202F332727FD3095DB01CA01022E04C0B695A795979587950A94D2F78D879E87AF87B88B04C0440F551F661F771FEA95D2F760
S284000D0089819A81AB81BC8104C0B695A795979587952A95D2F7482B592B6A2B7B2B49875A876B877C8729853A854B855C856D857E85AF8598898A2F60960FB6F894DEBF0FBECDBFCF91DF910F91FF90EF900895EF92FF920F93DF93CF93CDB7DEB760970FB6F894DEBF0FBECDBFA82F002309F461C07E010894E11CF11C88E0F701119255
S284000D808A95E9F729833A834B835C836D837E83AF83988780E2801BE82FFF27E7FDF09549815A816B817C81181684F019861A861B861C86882799278E1B9F0B04C0440F551F661F771F8A95D2F728C0202F332727FD3095DB01CA01022E04C0880F991FAA1FBB1F0A94D2F789879A87AB87BC8704C07695679557954795EA95D2F78D81F5
S284000E009E81AF81B88504C0880F991FAA1FBB1F2A95D2F7482B592B6A2B7B2B4D875E876F87788B29853A854B855C856D857E85AF8598898A2F60960FB6F894DEBF0FBECDBFCF91DF910F91FF90EF90089581E08093F6022FB7F8948091900390919103946090939103809390032FBF089508950895089508958091F602882321F0813049
S284000E8009F093C04CC088EC80930F03109210031092240389E190E0909312038093110386E0809313031092140310921503109219031092180310921B0310921A0310921D0310921C0310921F0310921E031092210310922003109223031092220384E093E00E94321482E08093F60282E390E0A0E0B0E08093FD029093FE02A093FF02AB
S284000F00B09300031092010387E297E0909303038093020387EF92E00E94531108952FB7F8948091900390919103946090939103809390032FBF0E9464D565E070E00E9497D482309105D1F0833091052CF4009749F0019739F50BC083309105A1F0049709F518C084E093E060E072E017C084E093E067E072E047E050E012C084E093E07F
S284000F806FE072E004C084E093E068E172E048E050E006C084E093E061E272E046E050E00E94B41382E08093F6020895089502C00E94A36B0E944A178823D1F708950F931F93CF93DF938C01EB010E94D707C801BE010E9471168F5F9F4F11F481E006C0C65DD74011F40E94D70780E0DF91CF911F910F9108950F931F93CF93DF938C0135
S284001000EB010E94D707C801BE010E94D5168F5F9F4F11F481E006C0C65DD74011F40E94D70780E0DF91CF911F910F9108952F923F924F925F926F927F928F929F92AF92BF92DF92EF92FF920F931F93DF93CF93CDB7DEB762970FB6F894DEBF0FBECDBF8091100482608093100482FF90C085E293E065EF73E00E94C40B809110048B7F88
S2840010808093100484C0E0902B03F0902C03F70163E0F695E7956A95E1F7ED51FC4FC70187709070940102C0220F331F8A95E2F7C901809522898223828B69857A854B855C8580E00E94D70CD82E388A2F865A8A498A8F81988505979E878D87C50166ED77E00E94DF078A81D81681F58D819E81E816F90659F52B853C858B819C81281753
S284001100390721F5788A6F869A8A898A00E010E017C08F819885800F911F9E878D87C50166ED77E00E94DF07AF85B889E985FA85E00FF11F9C918081981741F40F5F1F4F8B859C850817190720F335C0DA82FE82ED828B859C859C838B83CE010296988B8F8785E090E09A8B898B8F81988505979E878D87CE010D9666ED77E00E94FB07C2
S284001180CE01079667E178E00E94FB0728C051E0852E912C42E0242E312C2C0E3D1E35E0432E512C2DE0A22EB12CAC0EBD1E3E010894611C711C85E293E0BE01695F7F4F0E94750C882309F05ECF809110048D7F809310048FE060E070E00E94BE6A62960FB6F894DEBF0FBECDBFCF91DF911F910F91FF90EF90DF90BF90AF909F908F9018
S2840012007F906F905F904F903F902F900895A6E0B0E0EDE0F9E00C94DAD48E010F5F1F4F26E0F80111922A95E9F7FC0173E0F695E7957A95E1F7E00FF11F8770907021E030E002C0220F331F8A95E2F78081822B8083C8010E94E20AE5EFF3E0D80180819D91892B819383E0EB3FF807C1F785898460858B2696E4E00C94F6D426E0FB0179
S28400128011922A95E9F7FC0133E0F695E7953A95E1F7E60FF71F8770907021E030E002C0220F331F8A95E2F78081822B8083CB010E94E20A0895882321F0813071F090E013C0DB01EBEFF3E08C91919189238D9384E0E130F807C1F706C0CB010E94590D90E0882309F491E0892F0895A6E0B0E0ECE7F9E00C94DAD48E010F5F1F4FB80174
S2840013000E943E0980E0B8010E945B09D801F8019E01295F3F4F8081882329F43196E217F307C9F71DC0BE016F5F7F4F2FEE33E0AE01495F5F4FFB018081F90191919F018923FB018193BF01E417F507A1F78C91882311F081E005C01196A617B707B9F780E02696E4E00C94F6D40E9407098091100481FD02C00E94170881E00895A8E1FB
S284001380B0E0E5ECF9E00C94D0D40CEC10E01093E4030093E30384E791E09093E6038093E50384E791E0801B910B66E070E00E9483D48091E7039091E803862B972B9093E8038093E70388E991E08457914066E070E00E9483D48091E9039091EA03862B972B9093EA038093E9031092EB031092EC031092ED031092EE0386E0EBEFF3E072
S284001400DF011D928A95E9F7FF2483E1A82EB12CAC0EBD1EB1E0CB2ED12C38C0C501B80146E050E00E9474D58D899E890596A0E0B0E02091EB033091EC034091ED035091EE03820F931FA41FB51F8093EB039093EC03A093ED03B093EE038F89988DFC01A3E0F695E795AA95E1F7ED51FC4F87709070960102C0220F331F8A95E2F7C901C4
S284001480208D282B208F0A5F1F4FF3942091E7033091E8038F2D90E08217930708F4BECFC901880F991F820F931F880F991F04966C01EE24FF24CE010D969A87898786E090E09C878B8700E010E0AA24BB2467E0862E912C8C0E9D1E53E1652E712C6C0E7D1EF80143E0F695E7954A95E1F7ED51FC4F808D90E098012770307002C0969576
S28400150087952A95E2F780FF3DC0C501880F991F8A0D9B1D880F991F049698878F83C40166ED77E00E94DF0789899A898017910749F48D859E85AF85B8898C159D05AE05BF0559F01A8B098BCD86DE86EF86F88AC40166ED77E00E94FB07C8010E94910BBC01C30146E050E00E9474D58D899E890596A0E0B0E0C80ED91EEA1EFB1E08943E
S284001580A11CB11C0F5F1F4F0D32110509F0A9CF0E94D20ACE0101960E94590D6896EEE00C94ECD410920B048BED9AE090930D0480930C04089580910E0490910F040E94B50908954F925F926F927F928F929F92AF92BF92CF92DF92EF92FF921F93DF93CF93CDB7DEB728970FB6F894DEBF0FBECDBF6C012091E5033091E603FC018581B3
S28400160086FD10C05901EE24FF2473E0472E512C4C0E5D1E61E0862E912C3E010894611C711C61C0C6016FEF70E046E050E00E94A5D561C0C201B50146E050E00E9474D58F819885FC0153E0F695E7955A95E1F7EC0DFD1D40819C0127703070842F90E0022E02C0969587950A94E2F780FF34C0C40102C0880F991F2A95E2F780958423AC
S284001680808310E022C0220F331F6B817C81620F731FC30142E050E00E9474D589819A81FC0123E0F695E7952A95E1F7EC0DFD1D87709070940102C0220F331F8A95E2F7C9012081282B20831F5F212F30E08D819E8128173907B8F20894E11CF11C86E090E0A80EB91E8091E9039091EA03E816F90608F49FCF28960FB6F894DEBF0FBE78
S284001700CDBFCF91DF911F91FF90EF90DF90CF90BF90AF909F908F907F906F905F904F900895A2E0B0E0E7E9FBE00C94D2D45C010091E3031091E403CC24DD244E010894811C911C13C078010C5F1F4FC401B80142E050E00E9474D50E5F1F4F89819A818A159B0561F00894C11CD11C8091E7039091E803C816D90630F3EE24FF24C701E8
S2840017802296ECE00C94EED40F931F93FC018FEF9FEF978386831E2F0F2FDF01FB0186E001900D928150E1F7812F902F0E94E20A812F902F9C01D901EBEFF3E08C91919189238D9384E0E130F807C1F71F910F910895A2E1B0E0EFEEFBE00C94D6D47C016B018C01A3E016950795AA95E1F7F801ED51FC4F808D90E097012770307002C028
S284001800969587952A95E2F780FD03C04FEF5FEF4BC0DE011D96EBEFF3E086E001900D928150E1F730E040E050E0BE01635F7F4F1BC0FB01E80FF91F9081892F869585759575890F282F2695269523738373280F2083822F90E08F70907022952F70820F911D480F591F3F5F832F90E08017910700F360E0970127703070FE013D96E00FB1
S284001880F11F0DC0808190E0062E02C0969587950A94E2F781709070480F591F6F5F862F90E08217930770F3CE0107969C838B83CA01880F991F840F951F880F991F04969A83898386E090E09E838D83CE01019666ED77E00E94DF078F819885F601918380836296E8E00C94F2D4A6E0B0E0EBE7FCE00C94D8D47C018B0120E030E0F90169
S284001900B3E0F695E795BA95E1F7EE0DFF1D6081A90147705070862F90E0042E02C0969587950A94E2F780FF11C081E090E002C0880F991F4A95E2F7809586238083C9010E94910BBC01009739F427C02F5F3F4F2D323105A1F621C0CE01019646E050E00E9474D589819A81F801938382838D819E81B8010E94E90BF8018081918105966A
S284001980918380838B819C81958384838D819E81F7019783868381E006C08FEF9FEFF7019783868380E02696E6E00C94F4D4982F20E030E007C0FB01E20FF31F8081980F2F5F3F4F24173507B0F3892F0895AF92BF92DF92EF92FF920F931F93DF93CF93CDB7DEB72C970FB6F894DEBF0FBECDBF8C017B01CE0102969A87898785E090E0FD
S284001A009C878B87FB0180819181059798878F8387E0A82EB12CAC0EBD1EC50166ED77E00E94DF078D819E810817190789F5F701248135818B819C812817390749F5CE0101969A87898781E090E09C878B87DD2400E010E012C0F70180819181800F911F98878F83C50166ED77E00E94DF07E985FA858081D80E0F5F1F4FF7018481958110
S284001A800817190740F38A81D81611F480E001C082E02C960FB6F894DEBF0FBECDBFCF91DF911F910F91FF90EF90DF90BF90AF900895AEE0B0E0EFE5FDE00C94D4D47C018E01095F1F4FC801B7010E94C40B86E0F70111928A95E9F758018E010F5F1F4F31E0C32ED12C1DC08D859E85B8010E94E70C8823B1F48D859E85FC0123E0F695FF
S284001B00E7952A95E1F7EE0DFF1D87709070960102C0220F331F8A95E2F7C9012081282B2083C501B8010E94750C8823E9F62E96EAE00C94F0D480912E0382FF12C080912E038B7F80932E0380912E03806180932E03E0912F03F0913003309711F081E0099580912E0384FF29C0669B16C080912E038F7E80932E0380912E038E7F8093C8
S284001B802E03E0913103F0913203309711F081E0099586E00E94971411C0809140038160809340032FB7F8948091900390919103916090939103809390032FBF80912E0383FF12C080912E03877F80932E0380912E03806280932E03E0912F03F0913003309711F082E0099580912E0385FF29C0679B16C080912E038F7D80932E038091A4
S284001C002E038D7F80932E03E0913103F0913203309711F082E0099587E00E9497140895809140038160809340032FB7F8948091900390919103916090939103809390032FBF0895809338038823D1F410923403109235031092360310923703809140038260809340032FB7F8948091900390919103916090939103809390032FBF0895E3
S284001C80809133038130A1F58091340390913503A0913603B0913703382F20E0892F9A2FAB2FBB27A7FDBA959070822B932B880F892F881F990BAA2797FDA095BA2F8093340390933503A0933603B0933703809140038260809340032FB7F8948091900390919103916090939103809390032FBF089588E292E00E94D114109233036091C2
S284001D00340370913503E0913903F0913A038091380309950895882319F485E080933B03809140038460809340032FB7F8948091900390919103916090939103809390032FBF0895A9E0B0E0E8EAFEE00C94D8D489E392E00E94D11480913B03843049F0853009F47AC0833009F077C010923B0377C01A821B821C821D821E821F8218866B
S284001D80198681E080933B0360913C0380913D03862387FF65C070E06F777070660F771F65557B4FCE01029642E050E00E9474D560913D0370E06F777070660F771F65557B4FCE01069642E050E00E9474D52A813B814C815D81211531054105510509F43FC06E817F81888599856217730784079507B0F5E7E0660F771F881F991FEA9552
S284001E00D1F70E94AAD430E0265D3B4FCE010196B90141E050E00E9474D5698170E080E090E02A813B814C815D81EE80FF80088519852E193F09400B510B0E9458D4672F782F892F992787E06733780720F091E066E377E008C091E006C081E080933B0390E060E070E080E0911181E0E0913E03F0913F0309952996E6E00C94F4D48CE3EB
S284001E8093E0909342028093410287EA9FE0909349028093480281E090E09093400280933F0283E480933C0389E392E00E94EA148F5F9F4FA9F485E080933B03809140038460809340032FB7F8948091900390919103916090939103809390032FBF089584E080933B0308952DE333E0309342022093410227ED3FE0309349022093480220
S284001F0021E030E03093400220933F0293E890933D03882339F089E392E00E94EA148F5F9F4FA1F485E080933B03809140038460809340032FB7F8948091900390919103916090939103809390032FBF08952CE333E0309342022093410224E73FE0309349022093480221E030E03093400220933F02882339F089E392E00E9413158F5F01
S284001F809F4FA1F485E080933B03809140038460809340032FB7F8948091900390919103916090939103809390032FBF08952DE333E030934202209341022BE83EE0309349022093480221E030E03093400220933F02882339F089E392E00E9413158F5F9F4FA1F485E080933B03809140038460809340032FB7F89480919003909191030F
S284002000916090939103809390032FBF0895E0911104F091120480E090E0099508958091400380FF07C0809140038E7F809340030E949B0D8091400381FF07C0809140038D7F809340030E94790E8091400382FF07C0809140038B7F809340030E94A20E8091400383FF07C080914003877F809340030E94071080914003882361F02FB767
S284002080F8948091900390919103916090939103809390032FBF0895EEE3FDE088E3DF011D928A95E9F7B19610925F0D118212821382148215821682178285E08093690D85EB9DE06FE676E04EE850E00E9474D58FE09DE06DEF76E04FE250E00E9474D583E09DE06CE277E04CE050E00E9474D586E79DE068E377E04FE350E00E9474D5A1
S28400210080EF98E0E3E1F4E0DF019C011D9221503040E1F70895A4E0B0E0E1E9F0E10C94DAD48B01682F70E0660F771F660F771F6556784FCE01019644E050E00E9474D529813A818B819C81892B21F4C901F801808391832496E4E00C94F6D4A4E0B0E0E4EBF0E10C94DAD48B016115710501F18033F0F407C0842F962FB801422F0E9485
S2840021808AD516C0682F70E0660F771F660F771F6556784FCE01019644E050E00E9474D549816A815C812B81352F2115310519F72496E4E00C94F6D4A4E0B0E0E2EEF0E10C94D9D4F82E8B0161157105F1F0682F70E0660F771F660F771F6556784FCE01019644E050E00E9474D529813A815C814B818FE28F1528F4C801B9010E9474D529
S28400220004C0B901C8010E948AD52496E5E00C94F5D40E944C100E94BF090895EF92FF920F931F93CF93DF9318C081E493E060E070E0AE010E9439198A85882359F4EA82FB820C831D8381E493E0BE01A80197010E948117EB85FC85099580914103909142030097D9F00E94CD1B7B018C01C0914103D09142038A819B81AC81BD81A80123
S2840022809701281B390B4A0B5B0B8E819F81A885B985281739074A075B0738F6CDB7DEB7E6E00C94F4D4CF93DF93EC01009771F0E0914103F091420306C0EC17FD0749F00190F081E02D3097C1F709C02FEF3FEF02C020E030E0C901DF91CF9108950E94CD1B9B01AC01198218826A837B838C839D8381E493E0BE010E948117EACFCF93CA
S284002300DF93EC010097D1F080914103909142038C179D0749F081E493E0BE010E945819BC01009719F40AC060E070E081E493E0AE010E94391920E030E002C02FEF3FEFC901DF91CF9108958F929F92AF92BF92CF92DF92EF92FF920F930E94FF194B015C0120915B0330E040E050E060E070E080E090E000E20E94A806282939294A293D
S2840023805B290F91FF90EF90DF90CF90BF90AF909F908F90089590E0805C904023E0959587952A95E1F7E82FF0E0EE0FFF1FED5BFC4FA081B1811097B9F090968C919097887191F42FB7F89418968D919C9119972FBF009749F00190F081E02D048CF58DE02D309709F009950895FC0193898385992349F4803C19F0883C89F402C06A9A5B
S2840024000895559A0895803C19F0883C41F404C06A987298729A089555985D985D9A089580EC0E94CB11089588EC0E94CB110895CF93DF93E82FF0E0EF01C05CD04053E0D595C7955A95E1F7D0E0DE01AA0FBB1FAD5BBC4F0D90BC91A02D109709F466C0883C59F590968C91909781FF02C091E0649B90E080FF02C081E04C9B80E09923DB
S28400248011F48823D1F08AE090E0A0E0B0E08093500390935103A0935203B093530381E08093540389E992E190935603809355038AE493E00E94531139C04FB7F89412962D913C9113978D919C9111974FBF2817390749F1AE01440F551F4D5B5C4FEA0128813981E901288D398D280F391FE901388101962081206420833683EA01288184
S2840025003981E9012A8D3B8D8217930711F480E090E02181206221832FB7F89411969C938E932FBF03C0818180648183DF91CF91089588EC0E941812089588EC0E941812089580EC0E9418120895A3E0B0E0EBEAF2E10C94D7D481E0898306E010E0DD24F2E0EF2EF12CEC0EFD1E9091570389818923B9F09FB7F89420915703898182277E
S284002580809357039FBF6D2D70E0660F771F6D5D764FC70142E050E00E9474D5EA81FB810995D3948981880F898301501040E9F62396E7E00C94F3D49091570321E030E002C0220F331F8A95E2F7922B90935703809174038068809374032FB7F8948091900390919103826090939103809390032FBF0895CF93DF93C82FD0E0DE01A05C9A
S284002600B04023E0B595A7952A95E1F72A2F30E0D901AA0FBB1FAD5BBC4FED91FC911197309721F489818F77898354C080A183FD51C0C489D58984FF0AC06883ED91FC911197848995890196958B848B43C0209709F440C04681578186819781019697838683A681B78186899789A817B90711F417821682A681B78184819581A817B907F9
S28400268019F45783468326C0C40FD51F688380859185019691878087D901AA0FBB1FAD5BBC4F0D90BC91A02D90968C91909780FF11C01B968C911B97883C61F42085318556968D919C915797969587958217930708F45D9ADF91CF91089590E0805C904053E0959587955A95E1F790E0DC01AA0FBB1FAD5BBC4FED91FC911197309701F11D
S2840027006FB7F89442815381208131816FBF4217530711F421E02287FC01EE0FFF1FED5BFC4F0190F081E02D828D938D009711F4118E108E068CF78DE02D309709F00995089588EC0E946D13089580EC0E946D130895805C893030F4E82FF0E0E959FD4F8081089580E00895A0E0B0E0EAEBF3E10C94D4D4EC018B017A01009709F46AC06E
S284002780CB848C2D0E94A913882309F463C00115110509F45FC0E114F10409F45BC0EC2DF0E0E05CF04083E0F595E7958A95E1F7F0E0EE0FFF1FED5BFC4F80819181C817D90709F047C08A8D9B8D009779F42A813B818881998128173907E1F5198F088FFB82EA8219821882C7012CC08FB7F894CA80DB80A880B9808FBFD801960180E02B
S28400280090E015C0A9014F5F5F4F6A8D7B8D4617570711F440E050E04A155B0559F06D91E88DF98DE20FF31F608301969A018E159F0540F34FB7F8943B832A834FBFCA14DB0431F41A86EB85F0E02181206221839C0102C02FEF3FEFC901CDB7DEB7EAE00C94F0D41F93CF93DF93EC01009709F457C01B85812F0E94A913882309F450C091
S28400288088A180FF03C0183C09F04AC0E12FF0E0E05CF04063E0F595E7956A95E1F7F0E0EE0FFF1FED5BFC4F2081318121153105B9F5D183C083183C89F481FF02C06C98749888A180FF0AC0559A54985C988C899D89009711F45D9A01C05D988C85803419F4CE010E94F511198218821B821A828C899D89009711F41F8A1E8A888D998D21
S284002900009711F41B8E1A8E1D821C821F821E8281E08A87CE010E94FE1B2B8530E002C02FEF3FEFC901DF91CF911F910895E82FE650E230B8F4F0E0EE0FFF1FE659FC4F208131812115310569F09DB321E030E002C0220F331F8A95E2F7922B9DBB20E030E002C02FEF3FEFC9010895E0915803F091590387E0828380E98093BC00809108
S28400298076038260809376032FB7F8948091900390919103826090939103809390032FBF0895FC01009791F08091580390915903E817F90759F410925903109258038281882321F0128220E030E002C02FEF3FEFC9010895009719F1E0915803F0915903E817F907E1F480859185009721F4868197810097A1F08281813089F42285822F84
S284002A0090E091838083222311F484E001C082E0828385EA8093BC0020E030E002C02FEF3FEFC9010895009719F1E0915803F0915903E817F907E1F480859185009721F4868197810097A1F08281813089F42285822F90E091838083222311F485E001C083E0828385EA8093BC0020E030E002C02FEF3FEFC9010895E0915803F0915903B1
S284002A808281823031F08281833019F08281843019F48581880F06C08281853049F48581880F8F5F8093BB0085E88093BC0008950E94B6140895E0915803F091590320813181868197812817390780F480819181A085B185A80FB91F2C910196918380832093BB0085E88093BC00089586E0828384E98093BC008091760382608093760389
S284002B002FB7F8948091900390919103826090939103809390032FBF0895E0915803F091590383859485A585B6852081318121503040318320832081318143E0220F331F4A95E1F704C0B695A795979587952A95D2F78093BB0085E88093BC0080819181009741F48281823019F484E08283089585E082830895E0915803F09159038281D2
S284002B80843019F40E945B1508958281823019F08281833019F40E948D1508958281853021F485EA8093BC0008950E94B6140895E0915803F091590382818530A1F4868197818130910521F48091BC008F7B03C08091BC0080648093BC008091BC0085688093BC0008950E94B6140895E0915803F09159039281953011F520813181A08594
S284002C00B185A20FB31F8C932F5F3F4F31832083208131818681978101972817390720F48091BC00806403C08091BC008F7B8093BC008091BC0085688093BC0008950E94B6140895E0915803F09159039281953011F520813181A085B185A20FB31F8C932F5F3F4F3183208386E0828384E98093BC00809176038260809376032FB7F894C3
S284002C808091900390919103826090939103809390032FBF08950E94B6140895A0915803B09159031F96ED91FC9150973097A1F012968C911297863049F48091BC0084FDFCCF81E012968C93129704C081E012968C9380E00995089581E012968C9312970895FC0180915A03882309F057C0309709F457C08481958120813181820F931F89
S284002D0020E18130920708F04CC081E080935A0370934A0E6093490EA3E4BEE086E001900D928150E1F7F999FECF80E090E017C0E091450EF091460EE80FF91F2091430E3091440EA9014F5F5F4F5093440E4093430E32BD21BDF89A20B5208301962091470E3091480E8217930710F31092480E1092470E809175038460809375032FB775
S284002D80F8948091900390919103826090939103809390032FBF20E030E005C02EEF3FEF02C02FEF3FEFC9010895CF93DF93FC019B0180915A03882309F063C0309709F463C06081718184819581860F971F40E18130940708F058C081E080935A03A3E4BEE086E001900D928150E1F730934A0E2093490E2115310519F4C0E0D0E033C0D2
S284002E00CB0101969093440E8093430EE091450EF091460E4191F093460EE093450E8CE00E94A01E8091470E9091480E01979093480E8093470E22C06091430E7091440ECB0101969093440E8093430EE091450EF091460E4191F093460EE093450E84E00E94A01E21968091470E9091480EC817D90710F3F999FECF10925A0320E030E0A4
S284002E8005C02EEF3FEF02C02FEF3FEFC901DF91CF91089581E090915A03913009F080E008958091470E9091480E009751F410925A03E091490EF0914A0E309709F1099508956091430E7091440ECB0101969093440E8093430EE091450EF091460E4191F093460EE093450E8CE00E94A01E8091470E9091480E01979093480E8093470E92
S284002F000895A2E1B0E0E7E8F7E10C94CCD49A878987DB012B873C874D875E87FC01E080F180E114F10409F497C1222433244B855C856D857E859A01AB0160E070E0CB0129833A834B835C836D837E838F839887F88AEF86F701BA8BA98B02C01F01FC01E280F3800481158126813781408551856B857C858D859E856E157F0580079107D2
S284002F8008F48FC060E070E0CB0157016801EE24FF248701622E6A0C77247394621608F07724932E9B0C88248394931608F08824790C55245394791408F055248528542E5C0C99249394541608F09924850C44244394851408F044249428052F0D0D11E0051708F010E0900EEE24E394901608F0EE241E2944244394161608F0442401E06D
S284003000171608F000E055245394181608F05524A62C7981A71A21E06A1408F020E0972D8A81981B81E0791608F080E0492F421B21E0941708F020E0822B282D9B81291B91E0821608F090E0522F581B81E0251708F080E0982B292DAC812A1B81E0921608F080E0E22EE91A91E02E1508F090E0892BB12FB81B8B2F91E01B1708F090E0FD
S284003080242D291B922F21E0491608F020E0302F321B232F31E0021708F030E0142F052F95C039014A01AA24BB24650110950095F094E094E11CF11C011D111D722F7E1961E0271708F060E0872D8F1991E0781608F090E0A82FA61B6A2F552453948A1708F055249529582C501A81E0851408F080E0B52DB91B9B2F442443945B1608F086
S28400310044248429292D211B31E0921608F030E0E22EE81A81E02E1508F080E0832B819551E0181608F050E0519541E0151608F040E0419521E0141608F020E0522E5194A72E2981A21A11E07A1508F010E0262F3A81231B31E0621708F030E0622F611B162F61E0211708F060E0362B692F7B81671B21E0961708F020E0062F031B91E07A
S284003180601708F090E0292B3E2D9C81391B91E0E31608F090E0E32EE21A21E03E1508F020E0922B682F691B91E0861708F090E0A52FA91B9A2F81E05A1708F080E0242F281B31E0421708F030E0862F531A69F5222359F5992349F5882339F5A989BA8916962D913D914D915C91199760E070E0CB01992321F51816C0F0882301F51716C7
S284003200A0F07723E1F4161680F06623C1F4E51660F05E15A1F4041740F0401781F4131720F0311761F4A21650F480819181009709F094CE8F01A989BA891F0111C0EF84F8888F01A989BA89EE15FF0541F41196FC93EE93E985FA85B183A08306C0CF01F101B183A0838D939C936296E2E10C94E8D4CF93DF93FC01DB01EA018081918119
S2840032804817590739F48881998119821882808391830BC08881998111969C938E93198218828C9111969C911197DF91CF910895DC01ED91FC91119706C0808191818617970719F0FC013097C1F7CF0108958FB7F89410925E0310925D0310925C038FBF08958091880380FF0FC081E00E94D01E809170008D7F809370000E9467198091D7
S28400330088038B7F809388030895809170008C7F809370008091B60080628093B6001092B2001092B0001092B1001092B3008091B60090E08F7190700097C9F783E087BB87E08093B1008091700081608093700008958091B60090E08F7190700097C9F7809170008C7F809370008091B100887F8093B10083B5826083BD8091B60090E00E
S2840033808F7190700097C9F78091B6008F7D8093B60008959B01AC016091B200862F90E080959095AA2797FDA095BA2F9070A070B07082179307A407B50778F4281B390B4A0B5B0BBB27A52F942F832F90935D0380935C0320935E030895260F8091B60090E08F7190700097C9F72093B30082E087BB809170008260809370000895EF9250
S284003400FF920F931F938FB7F89490915F032091B20034E43093B4004091B60050E04F71507041155105C1F7B89904C030E040E050E009C02091B20030E040E050E021503F4F4F4F5F4F8FBF8FEF989FC0011124AA2797FDA095BA2F820F931FA41FB51F9C01AD0175E0220F331F441F551F7A95D1F77C018D0162E016950795F794E79473
S2840034806A95D1F72E0D3F1D401F511FE0906003F090610300916203109163032E0D3F1D401F511F281B390B4A0B5B0BB901CA011F910F91FF90EF90089560E270E080E090E008958FB7F89460915F0310925F038FBF70E080E090E020E43FE140E050E00E9458D49B01AC018091600390916103A0916203B0916303820F931FA41FB51F8D
S2840035008093600390936103A0936203B093630382179307A407B50728F480915B038F5F80935B0308951F920F920FB60F920BB60F9211242F933F934F935F936F937F938F939F93AF93BF93EF93FF93809170008D7F8093700010925E038091880380FF03C080E00E94D01E8091880382FF11C0809172038160809372032FB7F8948091DF
S284003580900390919103826090939103809390032FBFFF91EF91BF91AF919F918F917F916F915F914F913F912F910F900BBE0F900FBE0F901F9018951F920F920FB60F920BB60F9211242F933F934F935F936F937F938F939F93AF93BF93EF93FF9380915C0390915D030097A1F580915E038823E9F48091880380FF03C080E00E94D01E75
S2840036008091880382FF34C0809172038160809372032FB7F8948091900390919103826090939103809390032FBF22C08091B60090E08F7190700097C9F780915E038093B30082E087BB8091700082608093700009C080915C0390915D03019790935D0380935C038091880380FF02C00E94651F80915F038F5F80935F0380917203826093
S284003680809372032FB7F8948091900390919103826090939103809390032FBFFF91EF91BF91AF919F918F917F916F915F914F913F912F910F900BBE0F900FBE0F901F90189580E197E29093A9008093A800E1EAF0E088E08083808182608083E2E7F0E080818260808308959B01AC018091660390916703A0916803B0916903820F931FD3
S284003700A41FB51F8093660390936703A0936803B0936903809176038460809376032FB7F8948091900390919103826090939103809390032FBF08958FB7F89460916503109265038FBF70E080E090E02AE030E040E050E00E9458D49B01AC018091660390916703A0916803B0916903820F931FA41FB51F8093660390936703A0936803D5
S284003780B093690382179307A407B50728F4809164038F5F8093640308950E949C1B6091660370916703809168039091690308951F920F920FB60F9211242F938F939F93809165038F5F80936503809176038460809376032FB7F8948091900390919103826090939103809390032FBF9F918F912F910F900FBE0F901F901895FC01A385AB
S284003800B0E011961C92A385B0E08585968515969C938E9314978485A385882349F4B0E082E08C93A385B0E012961C92129707C0B0E01C92A385B0E0828912968C93A385B0E012968C9112979485892B12968C93A385B0E012968C9112979785892B12968C93A385B0E012968C9112979089892B12968C93A385B0E012968C9112979189FA
S284003880892B12968C93A385B0E08C9180688C93A385B0E011968C911197886111968C931197E385F0E081818068818308951F920F920FB60F920BB60F9211242F933F934F935F936F937F938F939F93AF93BF93EF93FF93E1ECF0E080818F7D808380E00E94DC12FF91EF91BF91AF919F918F917F916F915F914F913F912F910F900BBE02
S2840039000F900FBE0F901F9018951F920F920FB60F920BB60F9211242F933F934F935F936F937F938F939F93AF93BF93EF93FF93E1ECF0E080818F7B808381E00E94DC12FF91EF91BF91AF919F918F917F916F915F914F913F912F910F900BBE0F900FBE0F901F9018951F920F920FB60F920BB60F9211242F933F934F935F936F937F937E
S2840039808F939F93AF93BF93EF93FF938091C0006091C6008C7131F480EC0E94FA1282E00E94DC12FF91EF91BF91AF919F918F917F916F915F914F913F912F910F900BBE0F900FBE0F901F9018951F920F920FB60F920BB60F9211242F933F934F935F936F937F938F939F93AF93BF93EF93FF93E9ECF0E080818F7D808383E00E94DC1272
S284003A00FF91EF91BF91AF919F918F917F916F915F914F913F912F910F900BBE0F900FBE0F901F9018951F920F920FB60F920BB60F9211242F933F934F935F936F937F938F939F93AF93BF93EF93FF93E9ECF0E080818F7B808384E00E94DC12FF91EF91BF91AF919F918F917F916F915F914F913F912F910F900BBE0F900FBE0F901F9022
S284003A8018951F920F920FB60F920BB60F9211242F933F934F935F936F937F938F939F93AF93BF93EF93FF938091C8006091CE008C7131F488EC0E94FA1285E00E94DC12FF91EF91BF91AF919F918F917F916F915F914F913F912F910F900BBE0F900FBE0F901F9018951F920F920FB60F920BB60F9211242F933F934F935F936F937F9382
S284003B008F939F93AF93BF93EF93FF930E947119809147038111EC98E0914803F0914903309709F00995FF91EF91BF91AF919F918F917F916F915F914F913F912F910F900BBE0F900FBE0F901F9018954DB121E030E0082E02C0220F331F0A94E2F7922F209524232DB92EB1292B2EB9EAE6F0E040818450880F23E030E0082E02C0220FCB
S284003B80331F0A94E2F7209524232083208170E06370707002C0660F771F8A95E2F7262B20838CB3892B8CBB08951F920F920FB60F920BB60F9211242F933F934F935F936F937F938F939F93AF93BF93EF93FF930E947119E0916A03F0916B03309709F00995FF91EF91BF91AF919F918F917F916F915F914F913F912F910F900BBE0F909F
S284003C000FBE0F901F9018951F920F920FB60F920BB60F9211242F933F934F935F936F937F938F939F93AF93BF93EF93FF930E947119E0916C03F0916D03309709F00995FF91EF91BF91AF919F918F917F916F915F914F913F912F910F900BBE0F900FBE0F901F9018951F920F920FB60F920BB60F9211242F933F934F935F936F937F935B
S284003C808F939F93AF93BF93EF93FF938091B90090E0887F90708832910569F1893291059CF48031910521F18131910534F4009729F18830910589F51BC088319105D9F08032910551F51AC088349105B9F0893491053CF48033910589F080349105E9F410C08035910581F088359105B1F411C00E943C1512C00E94BB150FC00E94B61428
S284003D000CC00E94D81509C08091BB000E94F61504C08091BB000E942216FF91EF91BF91AF919F918F917F916F915F914F913F912F910F900BBE0F900FBE0F901F901895F999FECF07B600FCFDCF72BD61BD40BD9FB7F8948FBBF99A9FBF08951F920F920FB60F9211242F938F939F93FB98809175038460809375032FB7F894809190037C
S284003D8090919103826090939103809390032FBF9F918F912F910F900FBE0F901F901895909188038170880F9C7F982B909388030E94EE21882311F42C980EC024982C988091B0008F738093B0008091B60090E08F7190700097C9F7249A809176038160809376032FB7F8948091900390919103826090939103809390032FBF08958091C3
S284003E00880380FF61C08091A1008D7F8093A10080916E0390916F03A0917003B09171030097A105B10551F40E94FF1960936E0370936F038093700390937103809147038111EC9AF999FECF809188038860809388030E94EE218823B1F42C9A249A8091880382FF05C087E083BF889513BE22C00E94A91985E083BF889513BE0E9485193D
S284003E800E947C2017C0209172009091BC0080917A00109272001092BC0010927A00249A37E033BF889513BE209372009093BC0080937A0084E48093B4008091B60090E08F7190700097C9F708950E94EE21882309F44BC08091880382FF67C024982C988091B60090E08F7190700097C9F78091700081FD0AC08FEF8093B3008091B60065
S284003F0090E08F7190700097C9F78091B000806C8093B0008091B60090E08F7190700097C9F78091B10080688093B1008091B60090E08F7190700097C9F78091B0008F738093B0008091B60090E08F7190700097C9F78091B00080688093B0008091B60090E08F7190700097C9F7809188038160809388038091B60090E08F719070009784
S284003F80C9F7809176038860809376032FB7F8948091900390919103826090939103809390032FBF20E030E002C02FEF3FEFC90108950E94FF1920916E0330916F034091700350917103621B730B840B950B10926E0310926F0310927003109271030E94741B8091A10082608093A1000E94AD2080918803982F977F9093880381FD07C009
S284004000E0917903F0917A03309709F009950895A0E0B0E0EEE0F0E20C94CCD410E0C2E8DBE800E892E8692E9BE8792E812C912C82E8A82E8BE8B82E0E940C062BE88338920718F16E01EE24FF249C0140E050E022583B4840405040C216D306E406F5064CF4123039F480916600815080936600000036C020916600215020936600000083
S284004080EC01C258DB4811E028C02BE88238920739F16E01EE24FF249C0140E050E013012401221A330A440A550AC214D304E404F5044CF4113039F4809166008F5F8093660000000DC0209166002F5F209366000000E501C81BD90B12E0015009F0ACCFCDB7DEB7E2E10C94E8D40E94EE21882311F40E9408200895CF93DF93C8E8D3E1F7
S28400410088EC0E9404062197D9F70E947520DF91CF9108950E940406089580E28CBB0895ED9A08958DB3ED98807208952C9A08952C980895179A0895179808952C98249A179A0F9A6D9875980895EAE6F0E080818C608083089584E008951F9310E00E94792281E80E946222812F0E946222182F0E947722183099F71F91089508950895AB
S284004180089508958091760382FF0BC09FB7F894809176038B7F809376039FBF0E940E118BC08091720380FF0BC09FB7F894809172038E7F809372039FBF0E94B4227CC08091720381FF0BC09FB7F894809172038D7F809372039FBF0E94621A6DC08091760380FF0BC09FB7F894809176038E7F809376039FBF0E94D91F5EC08091760370
S28400420083FF0BC09FB7F89480917603877F809376039FBF0E94FF1E4FC08091740387FF0BC09FB7F894809174038F77809374039FBF0E94A51240C08091750381FF0BC09FB7F894809175038D7F809375039FBF0E947D2131C08091750382FF0BC09FB7F894809175038B7F809375039FBF0E94511722C08091760381FF0BC09FB7F894FD
S284004280809176038D7F809376039FBF0E944E1613C08091760384FF0FC09FB7F894809176038F7E809376039FBFE0914B0EF0914C0E309709F0099580917203882381F480917303882361F480917403882341F480917503882321F480917603882361F02FB7F8948091900390919103826090939103809390032FBF0895E0917703F091B9
S28400430078030284F385E02D309709F009950895ADE0B0E0EEE8F1E20C94DCD4FC01009739F18481958190937A038093790380819181A281B3818F839887A987BA8781E08B871D861C86CE0101960E947B222FEF8F3F920781F02FEF8D3F920761F00E94651F2FEF8F3F920749F42DEF3FEF08C02FEF3FEF05C02EEF3FEF02C020E030E03E
S284004380C9012D96E2E00C94F8D48FB390E0FC01E270F07081FDF9CF8FB7F89499E090935700E4918FBFEF70E23019F41092890303C081E08093890380918903882369F48FB7F8945F9350E85093610050E0509361005F918FBF0E947C2008958091890308951F920F920FB60F920BB60F9211242F933F934F935F938F939F93AF93BF9314
S284004400EF93FF93E0917703F0917803838126813781882349F48081918140917900280F391FD9014C930EC0808191814091780050917900DC01AA0FBB1FA20FB31F11965C934E93019691838083E0917703F0917803208131818085918528173907B1F480917A00877F80937A00809175038260809375032FB7F894809190039091910358
S284004480826090939103809390032FBFFF91EF91BF91AF919F918F915F914F913F912F910F900BBE0F900FBE0F901F901895289A23982B98229A219A209A80E58CBD81E08DBD08958EBD000000000000000000000000000000000000000000000000000000000000000000008DB58EB50895289A089528980895CF93DF93EC01009741F151
S2840045000E945D1A2E813F81488559850E9458D428EE33E040E050E00E94AAD42115310541055105C1F08091880382FD17C0846080938803EBE7F3E08DE0099001928150E1F7CA01B9010E94CA1920E030E008C02FEF3FEF05C02EEF3FEF02C02DEF3FEFC901DF91CF9108958091880382FF24C0909185039923B1F4E0918603F0918703F7
S284004580309709F009958091880382FF15C0609181037091820380918303909184030E94CA1908958B7F80938803E0918603F0918703309709F0099508952FEF8C3F9207D9F02FEF8D3F920728F42FEF8B3F9207F1F409C02FEF8D3F9207A1F02FEF8F3F9207A9F416C08091210E8130A1F49091BD0D92FD11C00BC081E09091210E92302E
S28400460058F005C09091BD0D81E093FD05C080E0089581E0089580E0089581E09091BA0E9A3A09F080E00895E091A00EF091A10E2091A20E3091A30E408140FF05C0418152818417950731F03B96E217F307A0F3E0E0F0E0CF01089581E090916D0E913409F080E0089581E09091680E963D09F080E0089581E09091940E933109F080E099
S284004680089581E09091F30E973B09F080E00895CF93DF93FC01DB01089619969C938E931897218123FF09C011969C938E93089619969C938E93189703C011961C921E92818184FF0EC018968D919C91199713969C938E931297089619969C938E93189704C013961C921E921297818180FF0EC018968D919C91199715969C938E93149740
S284004700019619969C938E93189704C015961C921E921497818182FF14C01896CD91DC9119971796DC93CE931697888190E00196880F991F8C0F9D1F19969C938E93189704C017961C921E92169718968C9118978E1B1A968C931A97DF91CF910895803108F08FE08093BE0D0895E091460FF091470F9091450F8CE2989FC00111248E0F00
S2840047809F1F04C02081222331F4BC96E817F907C8F381E0089580E0089581E09091F90E9A3D09F080E0089581E09091830E963E09F080E0089581E09091750F923009F480E0089581E09091F00E9E3809F080E008952091A60E3091A70EAC01421B530B83E19AED489F9001499F300D589F300D1124C901880F991F820F931F880F991F00
S284004800E091AA0EF091AB0EE80FF91F8481877009F487E00895E091A60EF091A70E2091A80E3091A90E90E046E05081552311F4882311F040839F5F7B96E217F307A8F3992329F081E02091380E222309F480E0282F220F220F8091140E8B7F822B8093140E992329F081E09091390E992309F480E0982F9795992797958091140E8F7724
S284004880892B8093140E0895282F8091C50D80FD07C081E09091390E291718F080E0089580E00895282F8091C50D81FD07C081E09091380E291718F080E0089580E00895982F842F2091AC0E342F241708F4322F231B322F621708F4362F231769F0992319F00E94522403C0862F0E94442491E0882319F090E001C091E0892F08950F9312
S2840049001F93182F862F9091AC0E262F961708F4292F921B292F191708F4212F0091140E921711F40B7711C00E9452248170880F880F0B7F082B0093140E812F0E9444248795882787950F77082B0093140E1F910F910895E091A60EF091A70E2091A80E3091A90E60E080E09081963051F0913011F0953031F49181923011F48F5F01C053
S2840049806F5F7B96E217F30778F30E947F240895E2E1FEE01092120E8091250E9091260E9295907F8F70892B8093130E8091140E9091BE0D9F70990F990F990F8478892B8093140EDF015E9633968091300E8093150E11968C911197818312968C911297828313968C911397838314968C911497848315968C911597858316968C91169789
S284004A00868317968C9187838FEF80931D0E80931E0E80931F0E8091C40D8093200E0E94AA240895FC018081813011F0853051F491818091140E923011F4806801C084608093140E86E080830895A6E0B0E0EBE2F5E20C94DCD4DE011196E0E7F2E096E001900D929150E1F7FE0131962191821718F49F5F9630D1F7892F8F5F2696E2E016
S284004A800C94F8D4A1E0B0E0E8E4F5E20C94DAD42091A60E3091A70EDC01A21BB30B23E13AEDA29FF001A39FF00DB29FF00D11249F01220F331F2E0F3F1F220F331F0091AA0E1091AB0E020F131FF8016283862F49830E9425258770880F880F880FF8019481977C982B9483498143832196E4E00C94F6D4A1E0B0E0E0E8F5E20C94DAD455
S284004B002091A60E3091A70EDC01A21BB30B23E13AEDA29FF001A39FF00DB29FF00D11249F01220F331F2E0F3F1F220F331F0091AA0E1091AB0E020F131FF8018281882341F08695962F96959695682F6695680F690FF8016283862F49830E9425258770880F880F880FF8019481977C982B9483498143832196E4E00C94F6D49C01609123
S284004B80A20FE091A30FF091A40F91E080E008C04081518135962417350721F08F5F990F8617B0F30895A0E0B0E0E9EDF5E20C94D2D44C015B01EA01C22E80E090E00E94BE252091A20F821708F065C02091A60E3091A70E6091AA0E7091AB0EE090A80EF090A90EF90143E15AEDD92ED094A081A63059F0A181A23041F0A481B581AA16D7
S284004C00BB0619F0CA17DB07C1F4DF01A21BB30BA49F8001A59F100DB49F100D1124D801AA0FBB1FA00FB11FAA0FBB1FA60FB71F15960C9115970D2117C0DF01A21BB30BA49F8001A59F100DB49F100D1124D801AA0FBB1FA00FB11FAA0FBB1FA60FB71F15960C911597092B15960C9315977B96EE15FF0508F4BBCF95E0899FC001112449
S284004C80E091A30FF091A40FE80FF91F91828082D383C283C482CDB7DEB7ECE00C94EED40E94BE259091A20F891780F490E09C01220F331F220F331F280F391FE091A30FF091A40FE20FF31F1182108208952091480F283439F081E090E02A3429F080E090E0089581E090E0089581E09091530E993109F080E0089581E02091760F309138
S284004D00770F2115310509F080E00895E091860FF091870F2091880F3091890F4081442341F04285641729F4448155818417950731F07296E217F30788F3E0E0F0E0CF010895CF93DF93EC018E859F85009791F0E889F989309739F023813481C217D30711F414821382DC011796ED91FC911897099609951882DF91CF910895CF93DF93DF
S284004D80FC01A381B4811E96CD91DC911F97109711F1209701F150968D919C9151978E179F07C9F4662321F084E18A871C920DC08A81882381F41F961C921E921E9711968C911197877F11968C936987EF81F885CE0109960995DF91CF91089581E090918A0F911180E00895E0918C0FF0918D0F30918E0F27E0329F900111242E0F3F1F2A
S284004E00448140FF09C042954170641729F4408151818417950731F03796E217F30780F3E0E0F0E0CF0108950E94F426FC01009719F084818E7F84830895CF93DF93EC0160E00E94142720918C0F30918D0FF90157E0448140FF07C082819381C817D90711F44E7F4483379680918E0F859FC0011124820F931FE817F90758F3DF91CF9132
S284004E800895CF92DF92FF920F931F93DF93CF930F92CDB7DEB76C01F62E8A0129830E94F426FC012981009779F08681821708F443C081E090E000908F0F02C0880F991F0A94E2F7858335C0E0918C0FF0918D0F90918E0F87E0989FC00111248E0F9F1FA0E0B0E0348130FF0EC0109731F0458115963C911597431708F4DF013796E81731
S284004F00F90780F3FD0134813160348381E090E000908F0F02C0880F991F0A94E2F78583D182C0828F2D81708295807F317E382B34831383028326830F90CF91DF911F910F91FF90DF90CF90089520913A0E30E044E150E0249FC001259F900D349F900D1124E0913E0EF0913F0EE80FF91F82819381220F331FE091400EF091410EE20FF5
S284004F80F31F60817181089590E09C01220F331FE091400EF091410EE20FF31F1182108244E150E0849F9001859F300D949F300D1124E0913E0EF0913F0EE20FF31F138212820895282F90913D0EE0913E0EF0913F0E80E008C03081332319F03181231729F08F5F74968917B0F38FEF089581E09091F50E9A3909F080E008951092930F0D
S284005000089581E09091A50F913309F080E0089521E030E040E050E004C0220F331F441F551F8A95D2F780914E0E90914F0EA091500EB091510E282B392B4A2B5B2B20934E0E30934F0E4093500E5093510E2FB7F8948091900390919103886090939103809390032FBF0895DC01E091920EF091930E8C9180A313962D913D914D915C91DE
S284005080169721A332A343A354A317968C9185A389EE8093940E8091950E80934D0E8DE00E9408280895E091F10EF091F20EDC018C9180AB88E58093F30E89E00E9408280895E091660EF091670EDC018C91882311F08A3F11F410A201C080A382E78093680E88E00E9408280895E091490FF0914A0F2091480F203629F4DC018C9185832F
S2840051008EE503C0309739F08DE58093480F87E00E940828089588E48093480F0895E091F60EF091F70EDC018C91808B87E48093F50E86E00E94082808958AEA8093BA0E82E00E9408280895E091540EF091550EDC018C91868380E00E94082882EC8093530E0895FC0181818460818380918A0F882331F483E980938A0F85E00E9408284E
S284005180089581E020917C0E30917D0E2115310509F080E00895A1E0B0E0E1EDF8E20C94DAD4198286E38E010F5F1F4FB8010E94DC1089818093270E85E368E37EE00E94DC1084E3B8010E94DC109091380E8981981720F4891B8093390E04C08093380E1092390E82E0898387E3BE016F5F7F4F0E94DC1089818093220E2196E4E00C9406
S284005200F6D4ADE0B0E0E7E0F9E20C94D6D4FC018091A60E9091A70EAF01481B590B23E13AED429FC001439F900D529F900D11249C01220F331F280F391F220F331FC090AA0ED090AB0EC20ED31E8081853039F488E4BE016E5F7F4F0E94DC1046C08181823079F5828D80FF09C080E090EEA1E0B0E08A839B83AC83BD8337C08AE1BE01C4
S2840052806A5F7F4F0E94DC1089E1BE01665F7F4F0E94DC108FE0BE016F5F7F4F0E94DC10698170E080E090E02A853B854C855D85EE80FF80088519852E0D3F1D401F511F0EC08EE0BE016F5F7F4F0E94DC10698170E080E090E028E93AE340E050E00E9458D46A837B838C839D838A819B81AC81BD817BE0B695A795979587957A95D1F710
S2840053000196A11DB11DF601918380832D96E8E00C94F2D42091A60E3091A70EFC01E21BF30B23E13AEDE29FA001E39F500DF29F500D11249A01220F331F240F351F220F331FE091AA0EF091AB0EE20FF31F67702481287F262B24830E9401290895A1E0B0E0E5EBF9E20C94D7D4E82EE0917E0EF0917F0ED090800E4D2D50E02CED30E0E9
S284005380429FC001439F900D529F900D11248E0F9F1FFF2400E010E00AC02081222321F0E21619F4F39401C08F01E452FF4FE817F90798F3980101151105A9F12E2D30E0CE0101966D2D663098F4BA01660F771F640F751F660F771F620F731F665A764F41E050E00E9474D58981F816B0F019C0B901665A764F41E050E00E9474D52F2DDA
S28400540030E08981ED2DE89FC001112495958795959587952817390724F4F801E082980102C020E030E0C9012196E7E00C94F3D4653780F40E94AF29009761F0FC01EF57FF4F9C01245F3F4F318320839C0120583F4F02C020E030E0C9010895CF93DF9386E00E94AF29EC01009721F181E89EE00E945A65FC01DE01AB53BF4F82818C935E
S284005480DE01AA53BF4FCE0183968D939C93C058DF4FD683C58323813481CF010596F90109958091810E9091820E009719F085E10E940828DF91CF910895EF92FF920F931F93CF93DF93C091EE0ED091EF0E8E010B5B1F4F85E0D8016C910E94182AFC01009709F471C0BCE1EB2EF12CE80EF91E8081887F8083DE01AE5BBF4F8C91868F71
S284005500DE01AD5BBF4F8D919C9190A3878F80912C0E90912D0E92A381A3D8014C9145A3DE01A35BBF4F5C9156A7818192819C01275F3F4F37A326A3552319F0479697A386A38FE194E491AB80AB81E087A7DE01AB5BBF4F8C91875F8383DE01AA5BBF4F6C9111967C9186A197A150E00E948AD58EEE9EE00E945A65FE01EC5AFF4F108273
S284005580FE01EB5AFF4FDE01A85BBF4F8D919C9191838083FE01E05BFF4F0190F081E02DCE018E5A9F4F0995C7010E9457978091EE0E9091EF0E009729F08FE00E9408288FE803C08EE801C080E98093F00ECDB7DEB7E6E00C94F4D48091940E873E99F5E091920EF091930E80914D0E80FF26C01582218D328D438D548D26833783408759
S2840056005187858D828780912A0E838780E1848784E398E296878587CF018696908F878BCF0102960E9417AE80914D0E8093950E10924D0E88EE8093940E089583EC80A389EE8093940E8091940E893ED1F482E99EE00E945A65FC01268D378D8096F90109958091920E9091930E009739F087EE8093940E8DE00E940828089583E180937D
S284005680940E08950F931F93CF93DF938091680E803791F5C091660ED091670E80914D0E85FF25C08E010E5F1F4F8DA1882319F081E00E940B2419A281E08D838A8D9B8DAC8DBD8D8E839F83A887B987898D8A8780912A0E8B871C86188E1F8A81E698E29E878D87C8010E9417AE81E721C082EC88A382E78093680E8091680E8237D1F466
S28400570086E69EE00E945A65FC01268D378D8096F90109958091660E9091670E009739F080E78093680E88E00E94082803C086ED8093680EDF91CF911F910F910895BC0189E69EE00E94A16583E00E94082808959C01FC01EC5AFF4F6083FC01EB5AFF4FDC01A85BBF4F8D919C9191838083F901E95AFF4F10821182128213828BE69EE059
S284005780B9010E94A16580916D0E813431F483E080936D0E8EE00E9408280895A1E0B0E0E4EDFBE20C94DAD4DC0113960D911C911497F801E55AFF4F18962C9120838A9669830E945026C80169810E94A82B2196E4E00C94F6D48F929F92BF92CF92DF92EF92FF920F931F93DF93CF93CDB7DEB728970FB6F894DEBF0FBECDBF29833A8389
S2840058004B835C836D837E838F839887B02E0091460F1091470F9091450F8CE2989F60011124C00ED11EFE013196CE0109962191222339F0EE24FF244E010894811C911C1CC0E817F90799F71CC0F8018081882389F0BB2021F0B8016E5F7F4F03C0B801665F7F4FC40148E050E00E947DD5009711F407C07801045D1F4F0C151D0528F3A0
S28400588002C0EE24FF24C70128960FB6F894DEBF0FBECDBFCF91DF911F910F91FF90EF90DF90CF90BF909F908F900895EF92FF920F931F93CF93DF938C01C091A00ED091A10E888180FF0AC0BE016D5F7F4FC80148E050E00E947DD5009751F02B968091A20E9091A30EC817D90758F3C0E0D0E07E01CE01CDB7DEB7E6E00C94F4D4CF9297
S284005900DF92EF920F931F93DF93CF93CDB7DEB728970FB6F894DEBF0FBECDBF6C0109831A832B833C834D835E836F837887CE0101960E94562CFC010097C9F4E091A40EF091A50E2091A20E3091A30ECF010B969093A50E8093A40E8217930740F08091A00E9091A10E9093A50E8093A40E808181608083D282C182998193839A819483C8
S2840059809B8195839C8196839D8197839E8190879F819187988592879E2D9170990F8D7F892B808328960FB6F894DEBF0FBECDBFCF91DF911F910F91EF90DF90CF9008951092750F88E69FE00E947F1108951F93CF93DF93C091860FD091870F10928B0F11E08881882351F081508883882321F4CE010E94A12602C010938B0F62968091D3
S284005A00880F9091890FC817D90758F380918B0F882321F489E79FE00E947F11DF91CF911F9108958DEA9EE00E947F110895CF93DF930E9464D5EC0184E0CC0FDD1F8A95E1F7C0700E9464D5282F30E02C2B3D2BC901DF91CF9108954F925F926F927F929F92AF92BF92CF92DF92EF92FF920F931F93DF93CF93CDB7DEB728970FB6F89448
S284005A80DEBF0FBECDBF29833A834B835C836D837E838F839887902E0091A60E1091A70ECC24DD2453E1652E5AED752E2E010894411C511CF8018081863009F492C08181823009F48EC0A18CB090C40DEA2CFF24EB18F108F7FE04C0F094E194F108F394F8ECEF16F10420F4AB1408F47AC003C0BA1408F476C089819A81892B9B81892BED
S284005B009C81892B9D81892B9E81892B9F81892B9885892B59F0B801605F7F4FC20148E050E00E947DD5009709F05BC0F801828D992019F082FF55C002C081FF52C0F801908D8091270E803118F4981708F049C0C114D10409F444C06091AA0E7091AB0E8091A60E9091A70EA801481B590B469D9001479D300D569D300D1124F901EE0F35
S284005B80FF1FE20FF31FEE0FFF1FE60FF71F42819601281B390B269DC001279D900D369D900D1124FC01EE0FFF1FE80FF91FEE0FFF1FE60FF71F2281F8ECEF16F10418F4AB1478F002C0BA1460F0842F90E0821B91092FEF873E920724F00E94172D83FF6801055E1F4F8091A80E9091A90E0817190708F45FCFC60128960FB6F894DEBF06
S284005C000FBECDBFCF91DF911F910F91FF90EF90DF90CF90BF90AF909F907F906F905F904F90089581E08093750F88E69FE00E945311089588E99AE3A0E0B0E080936E0F90936F0FA093700FB093710F0E94122E089588ED95E49093B90E8093B80E80E098E0A0E0B0E08093B30E9093B40EA093B50EB093B60E1092B70E8DEA9EE00E949C
S284005C8053110895FC018CE2DF011D928A95E9F70895AEE0B0E0EFE4FEE20C94D2D40091460F1091470F9091450F8CE2989F70011124E00EF11E6E010894C11CD11C7CE4A72E7DE1B72E62E0962E882483945DC0F80180818230C1F4828993899A83898382858B8383858C8384858D8385858E8386858F83878588878089898781898A87A7
S284005D001C861D861E861BC08330E9F5F801828593859A83898382818B8383818C8384818D8385818E8386818F83878188878085898781858A879C8687858D878E86F801818181FF17C08091750F823099F00E94E02C0E94172DB5010E9483D4A0E0B0E080936E0F90936F0FA093700FB093710F0E94122EF80181818B87C8010E94422EA1
S284005D80C6010E94B685045D1F4F0E151F0508F49FCF2E96ECE00C94EED4FC011182108210828091260E8F70880F880F80838181826081831382128280912C0E90912D0E958384838091270E90E0880F991F8F3F910519F010F08FEF90E086838091BF0D8F5F8093BF0D87830895A0E0B0E0EBEFFEE20C94D6D4F82EC091860FD091870FB7
S284005E002091880F3091890F00E010E00FC0998193FD08C00115110521F0D8019C91891708F48E016296C217D30728F48881882371F7209741F40115110529F1C8010E94A126E8010BC080918B0F882339F481E080938B0F89E79FE00E9453116E01EC2FED2CFD2D82E1DF011D928A95E9F79F2D9170990F990F990F8981877F892B898329
S284005E8087E2888302C0C0E0D0E0CE01CDB7DEB7E8E00C94F2D4EF92FF92CF93DF9386E79FE00E945A65E82EE7017E01F92EE70180914D0E80FF44C081E00E94F52EFC010097D9F19A8193709295990F907E81818F79892B81839E8191709295907F8F7E892B81838FEF838380912C0E90912D0E958384838B819C81918780878091780FCD
S284005F008F5F8093780F82878D81838714868091BF0D8F5F8093BF0D8587F786E68681818360818380918A0F882389F483E980938A0F85E00E9408280AC084E08A8702C082EC8987EF81F885CE01099609958091760F9091770F009719F084E00E940828DF91CF91FF90EF90089585E0EEE4FEE0DF011D928A95E9F70895AFE0B0E0E3ECFC
S284005F80FFE20C94CCD46B01DA014C01FC01B080FFE1BF2212968D919C911397009709F404C13B2D330F3B0D1B962C911B972250231708F4FAC0E0902C0EF0902D0EB40120E030E04FEF5FEF0BC0FB0101811281E016F10609F4A9012F5F3F4F6D5F7F4F2B1598F3FFEF4F3F5F0771F04F5F5F4F9A01220F331F240F351F280D391DF9011F
S284006000B080F7E0BF2202C017E0B12EFC01508041803280F381F987FC01F481FA87FC01F581FB87FC01F681FC87FC01A780F601848095801E96FC911E97FD871F962C911F972E8759824A823B8289858C839A859D83EB85EE83FC85FF83A886E090A60EF090A70E00E010E0CC24DD243E010894611C711CF7012081263021F4C114D1047E
S284006080F1F53AC0F701848195818816990661F0B701685F7F4FC30148E050E02F870E947DD52F850097A1F4F7018181823009F47CC0213059F48091220E882339F083E080838091140E84608093140EC7016AC02130A9F0253099F0C7010E94E923282E0115110531F0C8010E94E923821530F006C0B81618F003C0670101C087018BE160
S28400610090E0E80EF91E8091A80E9091A90EE816F90608F4AFCFC114D10409F086010115110509F442C083E0F80180838114910411F4118203C081E0F8018183F801828180738A60828380912B0E83839582848280912E0E90912F0E97838683508641863286298523878A8584879B8595872C852687A786C801409660E37EE048E050E0B1
S2840061800E9493D58091BE0DF801808F8091C40D818F828D8760828FC8016D854E850E944225C8016B2D0E948A2981E02F96E2E10C94E8D4EF92FF920F931F93CF93DF938C01E090840EF090850EFC01C2A1D3A1CE010E94CD2E88818C7F816088838981806189830E9412A9BC01CE01409648E050E00E9493D58091870E9091880E9B8372
S2840062008A83898188608983CE01089669E87EE048E050E00E9493D581E08E8384E0888F80E4898FF7018285882311F080EC898FF7018385882319F0898D8062898F8091870E9091880EF801928F818F8AE181A38091910E85A386E18093830ECDB7DEB7E6E00C94F4D4EF92FF920F931F93CF93DF938C01E090840EF090850EFC01C2A1B8
S284006280D3A1CE010E94CD2E88818C7F816088838981806189830E9412A9BC01CE01089648E050E00E9493D58DEF9FEF9B838A838981877F898381E08E8384E0888B198A8091210E823061F0F7018285882311F080E8898B8385882319F089898062898B82E1F80181A383E18093830ECDB7DEB7E6E00C94F4D4A0E0B0E0E1E8F1E30C94B2
S284006300D6D47C01FC0102A113A1C091460FD091470F9091450F8CE2989FC00111248C0F9D1F04C02881213031F0AC96C817D907C8F3C0E0D0E088E1C82ED12CC00ED11EC8010E94CD2EF80180818C7F816080839181986191838F858170880F9D7F982B91838C859D8593838283BE016E5F7F4FC801089648E050E00E9493D580912C0E1C
S28400638090912D0EF801958384830E9412A9BC01C801409648E050E00E9493D521E0F801268387E0808F8A859B85F601928381838E8583838C859D85F701928F818F898183FF02C025A303C085E0F70185A3F701D483C3838CE181A384E08883CDB7DEB7E8E00C94F2D4EF92FF920F931F93CF93DF938C01FC01C2A1D3A190E1E92EF12CC2
S284006400EC0EFD1ECE010E94CD2E88818C7F816088838981877F80618983E091FE0EF091FF0E848195819B838A8380912C0E90912D0E9D838C830E9412A9BC01CE01089648E050E00E9493D521E02E8386E0888B8091BD0DF7018183E091FE0EF091FF0E84819581F801928F818F25A382E181A3CDB7DEB7E6E00C94F4D4A4E0B0E0E3E4C6
S284006480F2E30C94CCD42C01DC0192960D90BC91A02DBC83AB835196BA83A9838B819C810E94CD2EEB81FC8180818C7F816080838181806181830E9412A9BC018B819C81089648E050E00E9493D58CEF9FEFAB81BC8113969C938E93129781E016968C93169788E050968C93509751968C91519780668F7751968C93519762E1662E712C98
S2840065006A0E7B1E52E7252E312C2A0E3B1E73018824992445C0C6018A199B09E3E1FAED8E9F90018F9F300D9E9F300D1124C901880F991F820F931F880F991FE091AA0EF091AB0EE80FF91FD60114968D909C901597D70111969C928E929481969596959695977012968C911297887F892B982F977F12969C931297948197709295907F43
S2840065808770892B12968C931297E3E0F0E0EE0EFF1EE214F30408F042C00894811C911CA090A60EB090A70E8501CC24DD242CC0D8018C91863031F111968C911197823009F1B801605F7F4F80E39EE048E050E00E947DD50097B1F4F80184819581FFEF883F9F0778F48815990560F0C114D10441F0D60114962D913C9115978217930705
S28400660008F46801055E1F4F8091A80E9091A90E0817190768F2C114D10409F07CCFE618F7088BEA9AEAE89E202D11242F71EB81FC819189907E922B918B89819A81019633E0239F700111248E0D9F1D8E1BD20191968C932496E2E10C94E8D4A7E0B0E0E4E3F3E30C94CDD4FC01A090F10EB090F20E8081882329F08A3E19F08A3F09F04F
S2840066800DC123813481458156812095309540955095D5011696ED90FD900D911C9119972E213F2140235123211531054105510509F4F3C085010E5F1F4F1D830C83908581859E838F838780692E782EC3015524B6E13B2ECC24CA94DC2C2FC0DC0111966D917C911297BFEF6F3F7B0721F1DC011B969C901B97452C1BC05414C9F0042D02
S284006700132D019FD00111240E811F81A00FB11F1196ED90FC9012976E157F0549F41B96EC901B979E1421F41296DC92CE9211974394481410F353944696581478F2DD24DA9455245A9433243A94CC24A1E0EA2EF12C012D112D86E1682D689F40011124860C971CC801B7016223732384239523611571058105910539F1D30144240FC04D
S2840067801B968C911B978C1549F411968D919C9112976FEF8F3F960709F043945696A815B90571F7442061F4C801B7016070707881769070611571058105910599F45C2C431410F4342CDC2CEE0CFF1C001F111F8C2D8F3111F0C394C5CF952D9F3F19F0D52C01C0DC2CD0922B0E8084C184E780198282E1BE016F5F7F4F0E94DC108981F2
S284006800882351F50E2D10E00F5F1F4F0E94172D9B838A8320E030E0AFEF8F3F9A0711F480E090E0E82DFC2D60E00CC04385D41639F4418152818417950711F4019604C06F5F76966E1590F32F5F3F4F2017310718F39B838A8306C081E1BE016E5F7F4F0E94DC108A819B8190932F0E80932E0E10922D0E10922C0E83E5F5018583178284
S284006880168289EE99E3978786878C819D810E941DAE89E58093F30E0AC084ECD501D0968C9388E58093F30E89E00E9408282796E1E10C94E9D4EF92FF92CF93DF938091480F8D3529F5E091490FF0914A0F80914D0E80FF18C080E68093480F21E08281882309F420E085E798E29093580F8093570F81E480934E0F20934F0F8BE49FE0C9
S2840069000E941DAE45C082EC85838EE58093480F8091480F8E35E1F589E49FE00E945A65E82EE7017E01F92EE7018091490F90914A0F009749F082EC8D838DE58093480F87E00E9408281FC06A81862F81508E3FB8F470E080E090E028EE33E040E050E00E9458D46093610F7093620F8093630F9093640F8BE59FE00E9453118AE401C0E7
S28400698088E48093480FEB81FC81CE0105960995DF91CF91FF90EF9008958FE58093480F85E798E29093580F8093570F81E480934E0F10924F0F8BE49FE00E941DAE08950F93E091FC0EF091FD0E2281338144815581668177818085918501E00E942C2D9093FF0E8093FE0E0097E1F01092000FFC018681978190932F0E80932E0E20E513
S284006A002093220F9093240F8093230F85E397E390932C0F80932B0F8FE19FE00E941DAE89E20AC0E091FC0EF091FD0E83EC838B8AE00E94082882E28093F90E0F910895662329F58091070F9091080FA091090FB0910A0F8C5B9D4FAF4FBF4F8093070F9093080FA093090FB0930A0F83ED9BE390930D0F80930C0F81E080930B0F81E01D
S284006A809FE00E9453118DE28093F90E0895E091FE0EF091FF0E828D8B7F828F0E94E03408950E94E03408950F931F93CF93DF93EB018A018E81813009F097C00E9412A9BC01CE01089648E050E00E947DD5009709F08BC068968091F90E982F9C52923008F063C081E09FE00E947F1189819A812FEF8F3F920709F44EC02B81222309F055
S284006B004AC0E091FC0EF091FD0E138A90932D0E80932C0EE091FE0EF091FF0E848195819093B60D8093B50D838180932B0E1082808D8F5F0E94AF23E091FE0EF091FF0E818D8093C40D0E94C824F801628173816115710549F08091FE0E9091FF0E089648E050E00E9493D583E58093220F80912C0E90912D0E9093240F8093230F85E364
S284006B8097E390932C0F80932B0F8FE19FE00E941DAE8EE228C0E091FE0EF091FF0E828D8B7F828F0E94E03420C08A3DF1F48091210E8230D1F489819A8190932D0E80932C0E23E52093220F9093240F8093230F85E397E390932C0F80932B0F8FE19FE00E941DAE81E38093F90E81E0DF91CF911F910F9108950F93E091FC0EF091FD0E04
S284006C002281338144815581668177818085918500E00E942C2DFC019093FF0E8093FE0E009751F11092000F80912A0E8093230F83818093220F82E08093240F868197819093260F8093250F848195819093280F8093270F8091BD0D80932F0F8AE496E39093310F8093300F8FE19FE00E94D3AD83E28093F90E0CC0E091FC0EF091FD0E4D
S284006C808AEC838B82E28093F90E8AE00E9408280F910895CF93DF93EC018C85882321F0833008F057C065C0A091FE0EB091FF0E16968D919C91179790932F0E80932E0EFE018191919190932D0E80932C0E14968D919C9115979093B60D8093B50D189688E001900D928150E1F78091220F80932B0EE091FE0EF091FF0E1082808D8F5F71
S284006D000E94AF23E091FE0EF091FF0E818D8093C40D0E94C8248091FE0E9091FF0E6A854B850E947A2585E48093220F82E19EE09093240F8093230F84E28093F90E85E397E390932C0F80932B0F8FE19FE00E941DAE18C08091000F8F5F8093000F823040F48FE19FE00E94D3AD83E28093F90E09C0E091FE0EF091FF0E828D8D7F828FB4
S284006D800E94FB35DF91CF910895E091F10EF091F20EDC018C918823A1F42FEF3FEF4FEF50E0258336834783508783E598E292878187CF0102960E9411AE8EE58093F30E089580AB88E58093F30E89E00E9408280895FC0180818823C1F48FEF9FEFAFEFB0E08093590E90935A0EA0935B0EB0935C0E84EA98E290935E0E80935D0E86E5AE
S284006E009EE00E9411AE84EC09C0E091540EF091550E868380E00E94082882EC8093530E0895A3E0B0E0E7E1F7E30C94DCD42AEA2093BA0EFC01408120912C0E30912D0ECE010196442321F43A83298320E103C03A83298329E02B830E94DA8882E00E9408282396E2E00C94F8D4A3E0B0E0EBE3F7E30C94DCD4FC018081882351F0E09197
S284006E80FC0EF091FD0E838B8AE00E94082882E254C08091F90E90E084978131910508F0C9C084539F4FFC010C9403D50E94E034C1C08091BD0D83FF05C08FEF9FEFAFEFB0E003C080E090E0DC018093220F9093230FA093240FB093250F80E99EE39093270F8093260F8FE19FE00E9411AE87E224C0E091FC0EF091FD0E138A82E28093D3
S284006F00F90E8AE00E94082895C080912C0E90912D0E9A83898380E18B83CE0101960E94DA888091FA0E9091FB0E009729F08AE00E94082881E201C08AED8093F90E7AC0E091FE0EF091FF0E838180932B0E1092220F8093230F8AE261C085E48093220F82E19EE09093240F8093230F84E256C082E58093220F8091BD0D86958695869531
S284006F8081708093230F86E249C086E48093220F8FE08093230F85E241C083E88093220F82E063E27FE00E94DC1084E337C08BE48093220FE091FE0EF091FF0E848195819093240F8093230F8FE228C08AE48093220FE091FE0EF091FF0EA3E2BFE080858093230F818511968C931197828512968C931297838513968C931397848514966A
S2840070008C931497858515968C931597868516968C931697878517968C9380E38093F90E85E397E390932C0F80932B0F8FE19FE00E941DAE2396E2E00C94F8D4EF92FF92CF93DF938091F30E843509F040C0C091F10ED091F20E80914D0E81FF33C089A59AA5ABA5BCA50097A105B10509F46FC09C01AD01215030404040504028233923BF
S2840070804A235B23211531054105510509F45FC01D828E839F83A887B9878DA58A8780912A0E8B8780E18C87CE014996988F8F8B8EEC98E39E878D87CE0102960E9417AE87E565C082EC88AB88E58093F30E8091F30E883509F05DC081EF9EE00E945A65E82EE7017E01F92EE70181E00E940B2488A98823C1F481E16EE27EE00E94AE1098
S28400710080E16BE27EE00E94AE108091F40E882321F40E94292E0E94122E81E08093F40E8DEF80934D0EEEA5FFA5CE01C09609958091F10E9091F20E009739F084E58093F30E89E00E94082824C087EB20C021E02D838E839F83A887B9878DA58A8780912A0E8B87BE01645F7F4F83E30E94DC10BE01695E7F4F8CE40E948B108EE293E39B
S2840071809E878D87CE0102960E9417AE86E58093F30EDF91CF91FF90EF900895A0E0B0E0E4EDF8E30C94D4D4FC01C091F10ED091F20E8081882309F063C0238134814581568120953095409550956E817F81888599852623372348235923C084D184A78060E270E0BB2491E0E92EF12C012D112D22C0D801C70182239323A423B5230097EB
S284007200A105B10589F0F601EB0DF11D80818D3C50F0D801C70180959095A095B095282339234A235B23B394EE0CFF1C001F111F6150704011F0BA14E0F281E08D832E833F83488759878DA58A8780912A0E8B87BE01645F7F4F83E30E94DC10BE01695E7F4F8CE40E948B108EE293E39E878D87CE0102960E9417AE86E58093F30E07C0F0
S28400728088AB88E58093F30E89E00E940828CDB7DEB7EAE00C94F0D4A1E0B0E0E2E5F9E30C94DAD48CE3BE016F5F7F4F0E94DC1006E81FE084E5B8010E948B104091860F5091870F298182E1289F90011124CA01820F931F9093890F8093880FCA0160E070E0A9010E94A5D510928A0F80914E0E90914F0EA091500EB091510E8F7D80932E
S2840073004E0E90934F0EA093500EB093510E10928B0FC8010D970E947F111092830F87EE9CE29093850F8093840F80E091E0A0E0B0E080937F0F9093800FA093810FB093820F2196E4E00C94F6D41F93CF93DF93182F8BE466EA7EE00E948B1081E36CEA7EE00E94DC104091AC0E8BE1489FA00111242091A60E3091A70E240F351F309344
S284007380A90E2093A80E8DE46AEA7EE00E948B100E94122D812F8370833019F081E00E940B2411FF12C0C091A60ED091A70E8881863019F0CE010E9401296B968091A80E9091A90EC817D90790F3DF91CF911F910895CF93DF93C091F10ED091F20EFC018081882341F088AB88E58093F30E89E00E94082893C08091F30E8A35B1F08B3564
S28400740020F4893509F08AC00AC08C3509F458C08C3508F44FC08F3509F080C065C086E48D838FE08E838AE554C080E00E94AF2387E160E37EE00E94DC108091300E9091310E892B9091320E892B9091330E892B9091340E892B9091350E892B9091360E892B9091370E892BD9F40E9412A9FC0180818093300E81818093310E82818093A9
S284007480320E83818093330E84818093340E85818093350E86818093360E87818093370E0E94C82485E48D8382E19EE09F838E838BE50FC082E58D8381E08E838CE509C083E88D83BE016A5F7F4F82E00E94DC108FE58093F30E89EE99E39F878E87CE0102960E941DAE1AC080912E0E90912F0E9E838D8380912B0E8F8380912A0E888749
S28400750081E089871A8685EC96E39C878B87CE0102960E9423AE8DE58093F30EDF91CF910895EF92FF92CF93DF938091F50E853449F5E091F60EF091F70E8091210E8130E1F480914D0E82FF18C080912E0E90912F0E9683858380912B0E878380912A0E8087118612868FE898E294878387CF0102960E9423AE86E436C082EC808B87E4BE
S2840075808093F50E8091F50E873479F586EF9EE00E945A65E82EE7017E01F92EE70180E00E940B248889882359F48091F80E882321F40E94292E0E94122E81E08093F80EEE85FF85CE01409609958091F60E9091F70E009739F085E48093F50E86E00E94082803C08AE98093F50EDF91CF91FF90EF900895E091840EF091850E662381F425
S28400760010928A0E82E59AE590938C0E80938B0E87E89EE00E94E5AD84E18093830E08958DEF80934D0E87E18093830E66878CE00E94082808958091530E823CE1F484E59EE00E945A65FC01828181FF03C08DEF80934D0E24813581CF010696F90109958091540E9091550E009711F081EC01C089E18093530E8091530E813C81F481E07E
